:020000040800F2
:1000000000000320190E0008D90C0008E10C0008BC
:10001000E90C0008F10C0008F90C000800000000D1
:10002000000000000000000000000000010D0008BA
:100030000F0D0008000000001D0D00082B0D00082A
:10004000690E0008690E0008690E0008690E0008B4
:10005000690E0008370D0008690E0008690E0008D7
:10006000690E0008690E0008690E0008690E000894
:10007000690E0008690E0008690E0008690E000884
:10008000690E0008690E0008690E0008690E000874
:10009000690E0008690E0008690E0008690E000864
:1000A000550D0008690D00087D0D0008910D000830
:1000B000690E0008690E0008690E0008690E000844
:1000C000690E0008690E0008690E0008690E000834
:1000D000690E0008690E0008A50D0008690E0008E9
:1000E000690E0008690E0008690E0008690E000814
:1000F000690E0008690E0008690E0008690E000804
:10010000690E0008690E0008B90D0008690E0008A4
:10011000690E0008690E0008690E0008690E0008E3
:10012000690E0008690E0008690E0008690E0008D3
:10013000690E0008CD0D0008E10D0008690E0008E9
:10014000690E0008690E0008690E0008690E0008B3
:10015000690E0008690E0008690E0008690E0008A3
:10016000690E0008690E0008690E0008690E000893
:10017000690E0008690E0008690E00080000000002
:10018000690E0008690E0008690E0008690E000873
:10019000690E0008690E0008690E0008690E000863
:0C01A000690E0008690E0008690E0008D6
:1001AC0010B5054C237833B9044B13B10448AFF3A5
:1001BC0000800123237010BD0C0000200000000003
:1001CC007C40000808B5034B1BB103490348AFF34F
:1001DC00008008BD00000000100000207C400008DA
:1001EC0053B94AB9002908BF00281CBF4FF0FF3192
:1001FC004FF0FF3000F06AB9ADF1080C6DE904CE98
:10020C0000F006F8DDF804E0DDE9022304B07047E5
:10021C002DE9F047089D0C46002B4ED194468C4599
:10022C008646B2FA82F262D94AB1C2F120039140F9
:10023C0020FA03F30CFA02FC194300FA02FE4FEA0F
:10024C001C471FFA8CF6B1FBF7F44FEA1E4307FB71
:10025C00141143EA014304FB06F199420AD91CEB41
:10026C00030304F1FF3080F01281994240F20F81B8
:10027C00023C6344591A1FFA8EF3B1FBF7F007FBEB
:10028C00101143EA014300FB06F69E420AD91CEB0F
:10029C00030300F1FF3180F0FC809E4240F2F980B4
:1002AC00634402389B1B40EA044000211DB1D3403B
:1002BC000022C5E90032BDE8F0878B4205D90DB1AB
:1002CC00C5E9000100210846F5E7B3FA83F10029DE
:1002DC0046D1A34202D39042C0F0F080861A64EB60
:1002EC0003030120002DE6D0C5E90063E3E7002AF3
:1002FC0040F09080A1EB0C044FEA1C481FFA8CF7DD
:10030C000121B4FBF8F64FEA1E4308FB164443EAFE
:10031C00044307FB06F0984208D91CEB030306F1D3
:10032C00FF3402D2984200F2CD8026461C1A1FFAE6
:10033C008EF3B4FBF8F008FB104443EA044300FBD3
:10034C0007F79F4208D91CEB030300F1FF3402D2DC
:10035C009F4200F2B0802046DB1B40EA0640A5E736
:10036C00C1F120068B4022FA06F71F4320FA06FC47
:10037C0004FA01F343EA0C03F44000FA01F8380CD8
:10038C004FEA1349B4FBF0FE1FFA87FC00FB1E4436
:10039C0049EA04440EFB0CF9A14502FA01F20AD910
:1003AC003C190EF1FF3A80F08480A14540F2818027
:1003BC00AEF1020E3C44A4EB09041FFA83F9B4FB22
:1003CC00F0F300FB134449EA044403FB0CFCA44582
:1003DC0007D93C1903F1FF3067D2A44565D9023B1C
:1003EC003C4443EA0E40A0FB0293A4EB0C049C4259
:1003FC00CE469C4651D34ED055B1B8EB0E0364EBB0
:10040C000C0404FA06F6CB401E43CC40C5E900644C
:10041C00002150E7C2F1200320FA03F10CFA02FC90
:10042C0024FA03F394400C434FEA1C4800FA02FEF2
:10043C001FFA8CF7B3FBF8F008FB1031230C43EADE
:10044C00014300FB07F1994208D91CEB030300F1AF
:10045C00FF362CD299422AD9023863445B1AA4B2D3
:10046C00B3FBF8F108FB113344EA034401FB07F337
:10047C00A34208D91CEB040401F1FF3613D2A342AA
:10048C0011D902396444E41A41EA004139E70446BF
:10049C00F0E6084606E7C845AED2B9EB020E63EBB0
:1004AC00070C0138A8E73146EDE7034699E73046DB
:1004BC00D4E7D6467FE7634402384DE70646234629
:1004CC0008460FE7023E634430E700BF704700BFA9
:1004DC0080B584B000AF00F0C3FC00F015F800F05C
:1004EC0013FA00F083F900F0CBF800F017F900F0E4
:1004FC00E1F900F079F80023FB600123BB600023D5
:10050C007B6000BFFDE7000080B594B000AF07F141
:10051C00200330220021184603F07EFD07F10C0366
:10052C0000221A605A609A60DA601A610023BB607C
:10053C002B4B1B6C2A4A43F080531364284B1B6CC7
:10054C0003F08053BB60BB6800237B60254B1B68AA
:10055C00244A43F440431360224B1B6803F440438A
:10056C007B607B6802233B620123FB6210233B63AD
:10057C000223BB630023FB6308233B64B4237B642B
:10058C000223BB640423FB6407F12003184601F02B
:10059C00EBFC0346002B01D000F024FA01F094FC94
:1005AC000346002B01D000F01DFA0F23FB60022341
:1005BC003B6100237B614FF4A053BB614FF480532C
:1005CC00FB6107F10C030521184601F045FF0346BA
:1005DC00002B01D000F006FA00BF5037BD4680BD9D
:1005EC00003802400070004080B500AF00220021AE
:1005FC00052000F0A6FD052000F0BFFD0022002123
:10060C00182000F09EFD182000F0B7FD00220021FC
:10061C00192000F096FD192000F0AFFD00220021FA
:10062C001A2000F08EFD1A2000F0A7FD00220021F8
:10063C001B2000F086FD1B2000F09FFD00220021F6
:10064C00262000F07EFD262000F097FD00220021E0
:10065C00322000F076FD322000F08FFD00220021C8
:10066C003D2000F06EFD3D2000F087FD00220021B2
:10067C003E2000F066FD3E2000F07FFD00BF80BDF7
:10068C0080B500AF1F4B204A1A60204B00221A7015
:10069C001E4B80225A701D4BE1229A701B4B00227C
:1006AC00DA701A4B00221A71184B00225A71154B32
:1006BC00164A5A60134B4FF400029A60114B144ABD
:1006CC00DA60104B134A1A610E4B40F2F4525A6125
:1006DC000C4800F0FFFD0346002B01D000F082F91E
:1006EC00382200210C4803F097FC0B4B21221A6096
:1006FC00094B4FF440025A61074B00221A6100BFAC
:10070C0080BD00BFA0010020008002402803002013
:10071C0000010020600000202800002080B58CB073
:10072C0000AF07F1200300221A605A609A60DA6069
:10073C0007F10C0300221A605A609A60DA601A61A1
:10074C003B1D00221A605A60264B274A1A60254B23
:10075C0000225A60234B00229A60224B4FF6FF7204
:10076C00DA60204B00221A611E4B00225A611D4B8D
:10077C0000229A611B4802F04FF80346002B01D06F
:10078C0000F030F94FF480533B6207F12003194617
:10079C00144802F080F90346002B01D000F022F936
:1007AC000023FB6000233B6107F10C0319460D4845
:1007BC0002F038FA0346002B01D000F013F90023A5
:1007CC007B600023BB603B1D1946064802F076FC9B
:1007DC000346002B01D000F005F900BF3037BD46B1
:1007EC0080BD00BF500200200000014080B58CB0DD
:1007FC0000AF07F1200300221A605A609A60DA6099
:10080C0007F10C0300221A605A609A60DA601A61D0
:10081C003B1D00221A605A60244B254A1A60234B58
:10082C0000225A60214B00229A60204B4FF0FF327D
:10083C00DA601E4B00221A611C4B00229A611B4885
:10084C0001F0EAFF0346002B01D000F0CBF84FF487
:10085C0080533B6207F120031946144802F01BF940
:10086C000346002B01D000F0BDF80023FB600023F1
:10087C003B6107F10C0319460C4802F0D3F903460F
:10088C00002B01D000F0AEF800237B600023BB608E
:10089C003B1D1946054802F011FC0346002B01D004
:1008AC0000F0A0F800BF3037BD4680BD9802002094
:1008BC00000C004080B500AF114B124A1A60104B6F
:1008CC004FF4E1325A600E4B00229A600C4B00221E
:1008DC00DA600B4B00221A61094B0C225A61084B4F
:1008EC0000229A61064B0022DA61054802F076FC80
:1008FC000346002B01D000F075F800BF80BD00BF8F
:10090C00E00200200044004080B58AB000AF07F13F
:10091C00140300221A605A609A60DA601A6100238C
:10092C003B612E4B1B6B2D4A43F0800313632B4B07
:10093C001B6B03F080033B613B690023FB60274B7F
:10094C001B6B264A43F004031363244B1B6B03F00D
:10095C000403FB60FB680023BB60204B1B6B1F4A2E
:10096C0043F0010313631D4B1B6B03F00103BB60CE
:10097C00BB6800237B60194B1B6B184A43F00203C6
:10098C001363164B1B6B03F002037B607B68002325
:10099C003B60124B1B6B114A43F0080313630F4B64
:1009AC001B6B03F008033B603B6800224FF4E051E3
:1009BC000B4801F06FFA4FF4E0537B610123BB61EC
:1009CC000023FB6100233B6207F114031946044822
:1009DC0001F0B4F800BF2837BD4680BD0038024096
:1009EC00001C024080B400AF72B600BF00BFFDE730
:1009FC0080B483B000AF00237B60104B5B6C0F4A5C
:100A0C0043F4804353640D4B5B6C03F480437B6075
:100A1C007B6800233B60094B1B6C084A43F08053F6
:100A2C001364064B1B6C03F080533B603B6800BFA8
:100A3C000C37BD465DF8047B704700BF00380240A0
:100A4C0080B58EB000AF786007F1240300221A60E5
:100A5C005A609A60DA601A617B681B68464A934256
:100A6C0040F0858000233B62444B1B6B434A43F0B0
:100A7C0000731363414B1B6B03F000733B623B6AC7
:100A8C000023FB613D4B1B6B3C4A43F080631363BB
:100A9C003A4B1B6B03F08063FB61FB690023BB616A
:100AAC00364B1B6B354A43F000631363334B1B6BA4
:100ABC0003F00063BB61BB6900237B612F4B1B6B95
:100ACC002E4A43F0040313632C4B1B6B03F00403FB
:100ADC007B617B6900233B61284B1B6B274A43F0EE
:100AEC0001031363254B1B6B03F001033B613B6953
:100AFC000023FB60214B1B6B204A43F00203136362
:100B0C001E4B1B6B03F00203FB60FB6832237B6202
:100B1C000223BB620023FB6203233B630B237B6337
:100B2C0007F124031946164801F008F886237B6266
:100B3C000223BB620023FB6203233B630B237B6317
:100B4C0007F1240319460F4800F0F8FF4FF46053E7
:100B5C007B620223BB620023FB6203233B630B23F8
:100B6C007B6307F124031946074800F0E7FF00BF39
:100B7C003837BD4680BD00BF0080024000380240BF
:100B8C0000080240000002400004024080B485B01E
:100B9C0000AF78607B681B68154A93420ED1002326
:100BAC00FB60144B5B6C134A43F001035364114B11
:100BBC005B6C03F00103FB60FB6812E07B681B6855
:100BCC000D4A93420DD10023BB600A4B1B6C094AA2
:100BDC0043F008031364074B1B6C03F00803BB6062
:100BEC00BB6800BF1437BD465DF8047B704700BF7F
:100BFC000000014000380240000C004080B58AB073
:100C0C0000AF786007F1140300221A605A609A60F2
:100C1C00DA601A617B681B68284A934249D1002329
:100C2C003B61274B1B6C264A43F400331364244B63
:100C3C001B6C03F400333B613B690023FB60204BCE
:100C4C001B6B1F4A43F0010313631D4B1B6B03F01B
:100C5C000103FB60FB680023BB60194B1B6B184A3C
:100C6C0043F008031363164B1B6B03F00803BB60C4
:100C7C00BB6808237B610223BB610023FB61032358
:100C8C003B6207237B6207F1140319460D4800F001
:100C9C0055FF20237B610223BB610023FB610323EF
:100CAC003B6207237B6207F114031946064800F0E8
:100CBC0045FF00BF2837BD4680BD00BF0044004043
:100CCC000038024000000240000C024080B400AF2B
:100CDC0000BFFDE780B400AF00BFFDE780B400AFFC
:100CEC0000BFFDE780B400AF00BFFDE780B400AFEC
:100CFC0000BFFDE780B400AF00BFBD465DF8047BCC
:100D0C00704780B400AF00BFBD465DF8047B7047F0
:100D1C0080B400AF00BFBD465DF8047B704780B562
:100D2C0000AF00F0EFF800BF80BD80B483B000AF1F
:100D3C000023FB71FB790133FB7100BF0C37BD46FF
:100D4C005DF8047B7047000080B500AF024801F0ED
:100D5C00B2FD00BF80BD00BF5002002080B500AFC7
:100D6C00024801F0A8FD00BF80BD00BF500200206A
:100D7C0080B500AF024801F09EFD00BF80BD00BFF2
:100D8C005002002080B500AF024801F094FD00BF76
:100D9C0080BD00BF5002002080B500AF024802F0B9
:100DAC006DFA00BF80BD00BFE002002080B500AF2F
:100DBC00024801F080FD00BF80BD00BF98020020FA
:100DCC0080B500AF024800F021FB00BF80BD00BF22
:100DDC00A001002080B500AF024800F017FB00BF57
:100DEC0080BD00BFA001002080B400AF064BD3F83B
:100DFC008830054A43F47003C2F8883000BFBD4602
:100E0C005DF8047B704700BF00ED00E0DFF834D0E4
:100E1C00FFF7EAFF0C480D490D4A002302E0D458B5
:100E2C00C4500433C4188C42F9D30A4A0A4C002328
:100E3C0001E013600432A242FBD303F0F5F8FFF794
:100E4C0047FB704700000320000000200C0000202E
:100E5C00BC4000080C00002034030020FEE700001A
:100E6C0080B500AF0E4B1B680D4A43F40073136042
:100E7C000B4B1B680A4A43F480631360084B1B68D6
:100E8C00074A43F480731360032000F04FF90F20DE
:100E9C0000F008F8FFF7ACFD0023184680BD00BF3A
:100EAC00003C024080B582B000AF7860124B1A68EB
:100EBC00124B1B7819464FF47A73B3FBF1F3B2FB68
:100ECC00F3F3184600F067F90346002B01D0012319
:100EDC000EE07B680F2B0AD8002279684FF0FF30A8
:100EEC0000F02FF9064A7B681360002300E0012311
:100EFC0018460837BD4680BD0000002008000020C1
:100F0C000400002080B400AF064B1B781A46064B39
:100F1C001B681344044A136000BFBD465DF8047B94
:100F2C00704700BF080000203003002080B400AFE1
:100F3C00034B1B681846BD465DF8047B704700BF29
:100F4C003003002080B584B000AF7860FFF7EEFF6F
:100F5C00B8607B68FB60FB68B3F1FF3F05D00A4BC0
:100F6C001B781A46FB681344FB6000BFFFF7DEFFDB
:100F7C000246BB68D31AFA689A42F7D800BF00BF82
:100F8C001037BD4680BD00BF0800002080B485B07E
:100F9C0000AF78607B6803F00703FB600C4BDB68E9
:100FAC00BB60BA684FF6FF031340BB60FB681A02C4
:100FBC00BB68134343F0BF6343F40033BB60044A84
:100FCC00BB68D36000BF1437BD465DF8047B704727
:100FDC0000ED00E080B400AF044BDB681B0A03F0AB
:100FEC0007031846BD465DF8047B704700ED00E032
:100FFC0080B483B000AF0346FB7197F90730002B28
:10100C000BDBFB7903F01F02074997F907305B09EB
:10101C00012000FA02F241F8232000BF0C37BD4634
:10102C005DF8047B704700BF00E100E080B483B042
:10103C0000AF03463960FB7197F90730002B0ADBD0
:10104C003B68DAB20C4997F907301201D2B20B4463
:10105C0083F800230AE03B68DAB20849FB7903F015
:10106C000F03043B1201D2B20B441A7600BF0C37AB
:10107C00BD465DF8047B704700E100E000ED00E048
:10108C0080B489B000AFF860B9607A60FB6803F097
:10109C000703FB61FB69C3F10703042B28BF04237F
:1010AC00BB61FB690433062B02D9FB69033B00E0EF
:1010BC0000237B614FF0FF32BB6902FA03F3DA4382
:1010CC00BB681A407B699A404FF0FF317B6901FA8B
:1010DC0003F3D9437B680B40134318462437BD46B2
:1010EC005DF8047B7047000080B582B000AF78607B
:1010FC007B68013BB3F1807F01D301230FE00A4AE7
:10110C007B68013B53600F214FF0FF30FFF78EFFE0
:10111C00054B00229A60044B07221A6000231846E4
:10112C000837BD4680BD00BF10E000E080B582B03E
:10113C0000AF78607868FFF729FF00BF0837BD461D
:10114C0080BD80B586B000AF0346B9607A60FB7392
:10115C0000237B61FFF73EFF78617A68B968786994
:10116C00FFF78EFF024697F90F3011461846FFF72E
:10117C005DFF00BF1837BD4680BD80B582B000AFA3
:10118C000346FB7197F907301846FFF731FF00BF94
:10119C000837BD4680BD80B582B000AF78607868F6
:1011AC00FFF7A2FF034618460837BD4680BD80B541
:1011BC0084B000AF78607B689B6DFB60FFF7B6FE78
:1011CC00B8607B6893F83530DBB2022B08D07B68B3
:1011DC0080225A657B68002283F83420012352E078
:1011EC007B681B681A687B681B6822F016021A6001
:1011FC007B681B685A697B681B6822F080025A6105
:10120C007B681B6C002B03D17B689B6C002B07D07D
:10121C007B681B681A687B681B6822F008021A60DE
:10122C007B681B681A687B681B6822F001021A60D5
:10123C0013E0FFF77BFE0246BB68D31A052B0CD9D3
:10124C007B6820225A657B68032283F835207B68F3
:10125C00002283F83420032315E07B681B681B688D
:10126C0003F00103002BE4D17B68DB6D3F229A4035
:10127C00FB689A607B68012283F835207B6800222A
:10128C0083F83420002318461037BD4680BD80B447
:10129C0083B000AF78607B6893F83530DBB2022BFB
:1012AC0004D07B6880225A6501230CE07B68052200
:1012BC0083F835207B681B681A687B681B6822F0F2
:1012CC0001021A60002318460C37BD465DF8047BFA
:1012DC007047000080B584B000AF78607B68002B4D
:1012EC0001D101238AE07B68D3F88430002B06D12E
:1012FC007B682322C3F884207868FFF7A1FB0023C6
:10130C00BB60404B5B6C3F4A43F4804353643D4BA2
:10131C005B6C03F48043BB60BB683B4B5B683A4A35
:10132C0023F400035360384B5A687B689B6836493A
:10133C0013434B60344B5B687B681B6803F580532D
:10134C001B687A68126843F0010302F5805213603F
:10135C00FFF7ECFDF86011E0FFF7E8FD0246FB68D3
:10136C00D31AB3F5FA7F09D97B680422C3F8882015
:10137C007B68E022C3F8842001233FE07B681B6874
:10138C0003F580531B6803F00103002BE4D178684C
:10139C0000F05EFA786800F009FB786800F05FFBFB
:1013AC007B685B681A460021786800F0C7FA7B6896
:1013BC001B68DA6B7B681B6842F40272DA637B6829
:1013CC001B68D3F80C317A68126843F4003343F08D
:1013DC006003C2F80C317B681B68D3F810217B6862
:1013EC001B6842F40312C3F810217B680022C3F877
:1013FC0088207B681022C3F88420002318461037FD
:10140C00BD4680BD003802400038014080B586B032
:10141C0000AF78607B681B689B6B7B617B681B688B
:10142C0003F580535B693B617B681B6803F5805354
:10143C00DB69FB604B4B5B69BB603B6903F04003B2
:10144C00002B0ED0FB6803F04003002B09D07B6807
:10145C001B6803F580531A46434B5361786800F0C0
:10146C0091F83B6903F00103002B0FD0FB6803F0EC
:10147C000103002B0AD07B681B6803F580531A46C6
:10148C004FF001135361786800F072F83B6903F474
:10149C000043002B42D0FB6803F40043002B3DD0EB
:1014AC007B68D3F8883043F008027B68C3F8882047
:1014BC003B6903F40053002B1AD07B681B6803F5BF
:1014CC0080535A69294B13407A68C2F88C307B6878
:1014DC001B6803F58053DB697A68126823F4C03308
:1014EC0002F58052D3617B68E022C3F8842012E0BD
:1014FC007B681B6803F580535A6948F2806313407C
:10150C007A68C2F88C307B681B6803F580531A46E6
:10151C0048F280635361786800F03EF87B6903F011
:10152C000803002B0ED07B681B68DB6A03F060029B
:10153C007B68C3F89420786800F038F87B68002248
:10154C00C3F89420BB6803F40023002B06D0054B92
:10155C004FF400225A61786800F032F800BF183757
:10156C00BD4680BD003C01404000010000207E00D3
:10157C0080B483B000AF786000BF0C37BD465DF817
:10158C00047B704780B483B000AF786000BF0C3729
:10159C00BD465DF8047B704780B483B000AF7860C3
:1015AC0000BF0C37BD465DF8047B704780B483B038
:1015BC0000AF786000BF0C37BD465DF8047B704708
:1015CC0080B483B000AF786000BF0C37BD465DF8C7
:1015DC00047B704780B584B000AF786039607B685D
:1015EC001B681B68FB60FA68534B1340FB603B683D
:1015FC009B7B5B063A68127C002A02D14FF40002F6
:10160C0000E0002213433A68527C002A02D14FF4C6
:10161C00800200E000221A433B689B681A433B6837
:10162C00DB7F1B041A433B685B6913433A68927F68
:10163C00002A02D14FF4005200E000221A433B680A
:10164C001B7F1B031A433B689B691A433B681B793E
:10165C009B0213433A6892F82020002A02D14FF4DF
:10166C00007200E000221A433B68DB7BDB011A436B
:10167C003B685B6A1A433B6893F828301B011343A1
:10168C00FA681343FB607B681B68FA681A607B6816
:10169C001B681B68FB600120FFF754FC7B681B6810
:1016AC00FA681A607B681B689B69FB60FA684FF6E6
:1016BC0041731340FB603B689B6C1B043A6892F8C7
:1016CC004C20002A01D1802200E000221A433B6802
:1016DC001B6D13433A6892F85520012A01D1082258
:1016EC0000E0002213433A6892F85620012A01D1F7
:1016FC00042200E0002213433A6892F85420012A95
:10170C0001D1022200E000221343FA681343FB606C
:10171C007B681B68FA689A617B681B689B69FB6035
:10172C000120FFF70FFC7B681B68FA689A6100BF09
:10173C001037BD4680BD00BF0F8120FD80B584B041
:10174C0000AF786039607B681B6803F580539B6938
:10175C00FB60FA683D4B1340FB603B681B7B002B26
:10176C0002D14FF0806200E000223B685B7B5B069D
:10177C0013433A68527F002A02D14FF4801200E0E2
:10178C0000221A433B689B7B5B051A433B685B69F1
:10179C001A433B681B7FDB011A433B689B7F9B0111
:1017AC001A433B681B6A1A433B6893F824309B002E
:1017BC001343FA681343FB607B681B6803F5805383
:1017CC001A46FB6893617B681B6803F580539B6921
:1017DC00FB600120FFF7B6FB7B681B6803F58053A9
:1017EC001A46FB6893613B681B795A063B689B68F9
:1017FC001A433B689B691A433B681B691A433B6855
:10180C0093F82530DB011A433B689B6A9B001A4313
:10181C003B681B6813437A68126843F4000302F5B3
:10182C00805213607B681B6803F580531B68FB6058
:10183C000120FFF787FB7B681B6803F580531A4672
:10184C00FB68136000BF1037BD4680BD233FDEF838
:10185C0080B5A6B000AF7860012387F8443001232F
:10186C0087F845300023FB63002387F853300123AE
:10187C0087F85230002387F85030012387F8423024
:10188C00012387F83830002387F85430002387F879
:10189C0043300023BB65002387F85C300023FB67D3
:1018AC00002387F880300023C7F88430002387F8A2
:1018BC008A30002387F888304FF48043BB644FF4A0
:1018CC000063FB64002387F8893007F13403194661
:1018DC007868FFF77FFE01233B7501237B7501239D
:1018EC0087F825300123BB750023FB61002387F8A3
:1018FC002430002387F826300023BB62012387F8AD
:10190C002C3001233B734FF480333B614FF4800345
:10191C003B624FF40053BB61012387F82D30002349
:10192C003B630023BB6007F1080319467868FFF797
:10193C0005FF00BF9837BD4680BD000080B487B05E
:10194C0000AFF860B9607A607B6805331B781B02C6
:10195C007A680432127813437B61BA68114B1344D2
:10196C001A467B6913607B6803331B781A067B6805
:10197C0002331B781B041A437B6801331B781B0250
:10198C0013437A68127813437B61BA68064B13448D
:10199C001A467B69136000BF1C37BD465DF8047B9B
:1019AC00704700BF408002404480024080B485B044
:1019BC0000AF78600023FB603EE07B68D968FA6872
:1019CC0013469B001344DB000B44BB60BB68002236
:1019DC001A60BB6800225A60BB6800229A60BB6820
:1019EC000022DA60B9687B68FA68063243F8221084
:1019FC00BB681B6843F48012BB681A60FB68022B3F
:101A0C000CD87B68D968FB685A1C13469B0013449E
:101A1C00DB000B441A46BB68DA6004E07B68DB68C9
:101A2C001A46BB68DA60BB681B6843F44002BB68AB
:101A3C001A60FB680133FB60FB68032BBDD97B6824
:101A4C0000229A627B68DA687B681B6803F5805316
:101A5C001A6100BF1437BD465DF8047B704780B433
:101A6C0085B000AF78600023FB6048E07B681969A3
:101A7C00FA6813469B001344DB000B44BB60BB6845
:101A8C0000221A60BB6800225A60BB6800229A6070
:101A9C00BB680022DA60BB6800221A62BB680022B5
:101AAC005A62BB684FF000421A607B685B6943F472
:101ABC008042BB685A60BB685B6823F00042BB681D
:101ACC005A60B9687B68FA68123243F82210FB68D6
:101ADC00022B0CD87B681969FB685A1C13469B00B7
:101AEC001344DB000B441A46BB68DA6004E07B68E5
:101AFC001B691A46BB68DA60FB680133FB60FB6844
:101B0C00032BB3D97B680022DA657B6800221A6646
:101B1C007B6800229A667B680022DA667B6800226A
:101B2C009A657B681A697B681B6803F58053DA60D9
:101B3C0000BF1437BD465DF8047B704780B489B094
:101B4C0000AF7860396000237B6100233B61002388
:101B5C00BB610023FB6177E10122FB6902FA03F30D
:101B6C007B613B681B687A6913403B613A697B690E
:101B7C009A4240F066813B685B6803F00303012BDB
:101B8C0005D03B685B6803F00303022B30D17B6804
:101B9C009B68BB61FB695B00032202FA03F3DB4326
:101BAC00BA691340BB613B68DA68FB695B0002FAF7
:101BBC0003F3BA691343BB617B68BA699A607B68AB
:101BCC005B68BB610122FB6902FA03F3DB43BA6970
:101BDC001340BB613B685B681B0903F00102FB69A6
:101BEC0002FA03F3BA691343BB617B68BA695A60A2
:101BFC003B685B6803F00303032B17D07B68DB683F
:101C0C00BB61FB695B00032202FA03F3DB43BA6995
:101C1C001340BB613B689A68FB695B0002FA03F3F3
:101C2C00BA691343BB617B68BA69DA603B685B686D
:101C3C0003F00303022B23D1FB69DA087B6808321B
:101C4C0053F82230BB61FB6903F007039B000F22A2
:101C5C0002FA03F3DB43BA691340BB613B681A69B0
:101C6C00FB6903F007039B0002FA03F3BA69134301
:101C7C00BB61FB69DA087B680832B96943F822104A
:101C8C007B681B68BB61FB695B00032202FA03F3F0
:101C9C00DB43BA691340BB613B685B6803F003022A
:101CAC00FB695B0002FA03F3BA691343BB617B68FF
:101CBC00BA691A603B685B6803F44033002B00F090
:101CCC00C0800023FB60664B5B6C654A43F4804329
:101CDC005364634B5B6C03F48043FB60FB68614AA9
:101CEC00FB699B08023352F82330BB61FB6903F09C
:101CFC0003039B000F2202FA03F3DB43BA69134080
:101D0C00BB617B68584A934237D07B68574A9342F1
:101D1C0031D07B68564A93422BD07B68554A93420C
:101D2C0025D07B68544A93421FD07B68534A934218
:101D3C0019D07B68524A934213D07B68514A934224
:101D4C000DD07B68504A934207D07B684F4A934230
:101D5C0001D1092312E00A2310E008230EE0072327
:101D6C000CE006230AE0052308E0042306E0032325
:101D7C0004E0022302E0012300E00023FA6902F0F0
:101D8C00030292009340BA691343BB613549FB6966
:101D9C009B080233BA6941F823203D4B9B68BB6119
:101DAC003B69DB43BA691340BB613B685B6803F476
:101DBC008013002B03D0BA693B691343BB61344ACF
:101DCC00BB699360324BDB68BB613B69DB43BA692F
:101DDC001340BB613B685B6803F40013002B03D01A
:101DEC00BA693B691343BB61294ABB69D360284B71
:101DFC005B68BB613B69DB43BA691340BB613B6801
:101E0C005B6803F40033002B03D0BA693B691343BE
:101E1C00BB611F4ABB6953601D4B1B68BB613B69AF
:101E2C00DB43BA691340BB613B685B6803F48033E6
:101E3C00002B03D0BA693B691343BB61144ABB69DD
:101E4C001360FB690133FB61FB690F2B7FF684AEDA
:101E5C0000BF00BF2437BD465DF8047B704700BF50
:101E6C0000380240003801400000024000040240EB
:101E7C0000080240000C0240001002400014024016
:101E8C0000180240001C02400020024000240240C6
:101E9C00003C014080B483B000AF78600B467B807F
:101EAC0013467B707B78002B03D07A887B689A6111
:101EBC0003E07B881A047B689A6100BF0C37BD462F
:101ECC005DF8047B7047000080B582B000AF002342
:101EDC007B6000233B60204B1B6C1F4A43F08053FC
:101EEC0013641D4B1B6C03F080533B603B681B4B16
:101EFC0001221A60FFF71AF8786009E0FFF716F86C
:101F0C0002467B68D31AB3F57A7F01D903231FE00D
:101F1C00134B5B6803F48033B3F5803FEED1114B68
:101F2C0001221A60FFF702F8786009E0FEF7FEFF65
:101F3C0002467B68D31AB3F57A7F01D9032307E0F5
:101F4C00074B5B6803F40033B3F5003FEED100237D
:101F5C0018460837BD4680BD0038024040000E428E
:101F6C000070004044000E4280B586B000AF78602F
:101F7C007B68002B01D1012367E27B681B6803F0AF
:101F8C000103002B75D0884B9B6803F00C03042BCA
:101F9C000CD0854B9B6803F00C03082B12D1824BA1
:101FAC005B6803F48003B3F5800F0BD17E4B1B6889
:101FBC0003F40033002B5BD07B685B68002B57D19C
:101FCC00012342E27B685B68B3F5803F06D1764B18
:101FDC001B68754A43F4803313601DE07B685B68B3
:101FEC00B3F5A02F0CD1704B1B686F4A43F48023C0
:101FFC0013606D4B1B686C4A43F4803313600BE029
:10200C00694B1B68684A23F480331360664B1B686A
:10201C00654A23F4802313607B685B68002B13D024
:10202C00FEF784FF386108E0FEF780FF02463B694B
:10203C00D31A642B01D9032307E25B4B1B6803F40F
:10204C000033002BF0D014E0FEF770FF386108E08D
:10205C00FEF76CFF02463B69D31A642B01D90323AC
:10206C00F3E1514B1B6803F40033002BF0D100E07B
:10207C0000BF7B681B6803F00203002B63D04A4B44
:10208C009B6803F00C03002B0BD0474B9B6803F0B1
:10209C000C03082B1CD1444B5B6803F48003002B0E
:1020AC0016D1414B1B6803F00203002B05D07B6853
:1020BC00DB68012B01D00123C7E13B4B1B6823F0EC
:1020CC00F8027B681B69DB00374913430B603AE06D
:1020DC007B68DB68002B20D0344B01221A60FEF7A2
:1020EC0025FF386108E0FEF721FF02463B69D31A51
:1020FC00022B01D90323A8E12B4B1B6803F002032D
:10210C00002BF0D0284B1B6823F0F8027B681B696E
:10211C00DB00254913430B6015E0244B00221A60A9
:10212C00FEF704FF386108E0FEF700FF02463B694A
:10213C00D31A022B01D9032387E11B4B1B6803F035
:10214C000203002BF0D17B681B6803F00803002B03
:10215C0036D07B685B69002B16D0154B01221A60B8
:10216C00FEF7E4FE386108E0FEF7E0FE02463B694C
:10217C00D31A022B01D9032367E10B4B5B6F03F0DE
:10218C000203002BF0D01BE0094B00221A60FEF773
:10219C00CDFE38610EE0FEF7C9FE02463B69D31A4C
:1021AC00022B07D9032350E10038024000004742BC
:1021BC00800E4742884B5B6F03F00203002BEAD181
:1021CC007B681B6803F00403002B00F0978000234E
:1021DC00FB75814B1B6C03F08053002B0FD100233C
:1021EC00BB607D4B1B6C7C4A43F0805313647A4B71
:1021FC001B6C03F08053BB60BB680123FB75774BF2
:10220C001B6803F48073002B18D1744B1B68734A42
:10221C0043F480731360FEF789FE386108E0FEF723
:10222C0085FE02463B69D31A022B01D903230CE12C
:10223C006A4B1B6803F48073002BF0D07B689B689F
:10224C00012B06D1644B1B6F634A43F001031367E8
:10225C001CE07B689B68052B0CD15F4B1B6F5E4AA7
:10226C0043F0040313675C4B1B6F5B4A43F00103A1
:10227C0013670BE0584B1B6F574A23F0010313678E
:10228C00554B1B6F544A23F0040313677B689B6800
:10229C00002B15D0FEF74AFE38610AE0FEF746FE29
:1022AC0002463B69D31A41F28832934201D9032387
:1022BC00CBE0494B1B6F03F00203002BEED014E074
:1022CC00FEF734FE38610AE0FEF730FE02463B6949
:1022DC00D31A41F28832934201D90323B5E03E4B25
:1022EC001B6F03F00203002BEED1FB7D012B05D1FC
:1022FC00394B1B6C384A23F0805313647B689B6901
:10230C00002B00F0A180344B9B6803F00C03082BCE
:10231C005CD07B689B69022B41D1314B00221A6047
:10232C00FEF704FE386108E0FEF700FE02463B694A
:10233C00D31A022B01D9032387E0274B1B6803F028
:10234C000073002BF0D17B68DA697B681B6A1A4337
:10235C007B685B6A9B011A437B689B6A5B08013B49
:10236C001B041A437B68DB6A1B061B4913434B6037
:10237C001B4B01221A60FEF7D9FD386108E0FEF70D
:10238C00D5FD02463B69D31A022B01D903235CE02D
:10239C00114B1B6803F00073002BF0D054E0104B72
:1023AC0000221A60FEF7C2FD386108E0FEF7BEFDA0
:1023BC0002463B69D31A022B01D9032345E0064B95
:1023CC001B6803F00073002BF0D13DE07B689B6928
:1023DC00012B07D1012338E0003802400070004087
:1023EC00600047421B4B5B68FB607B689B69012B61
:1023FC0028D0FB6803F480027B68DB699A4221D108
:10240C00FB6803F03F027B681B6A9A421AD1FA6898
:10241C0047F6C07313407A68526A9201934211D105
:10242C00FB6803F440327B689B6A5B08013B1B042E
:10243C009A4207D1FB6803F070627B68DB6A1B066B
:10244C009A4201D0012300E0002318461837BD46FC
:10245C0080BD00BF0038024080B584B000AF78600A
:10246C0039607B68002B01D10123CCE0684B1B68E1
:10247C0003F00F033A689A420CD9654B3A68D2B212
:10248C001A70634B1B6803F00F033A689A4201D031
:10249C000123B8E07B681B6803F00203002B20D0FB
:1024AC007B681B6803F00403002B05D0594B9B6819
:1024BC00584A43F4E05393607B681B6803F00803AD
:1024CC00002B05D0534B9B68524A43F460439360F6
:1024DC00504B9B6823F0F0027B689B684D4913437B
:1024EC008B607B681B6803F00103002B44D07B6876
:1024FC005B68012B07D1474B1B6803F40033002B9F
:10250C0019D101237FE07B685B68022B03D07B68C9
:10251C005B68032B07D13F4B1B6803F00073002B48
:10252C0009D101236FE03B4B1B6803F00203002B26
:10253C0001D1012367E0374B9B6823F003027B68D2
:10254C005B68344913438B60FEF7F0FCF8600AE0DB
:10255C00FEF7ECFC0246FB68D31A41F28832934238
:10256C0001D903234FE02B4B9B6803F00C027B68D3
:10257C005B689B009A42EBD1254B1B6803F00F0361
:10258C003A689A420CD2224B3A68D2B21A70204B5B
:10259C001B6803F00F033A689A4201D0012332E022
:1025AC007B681B6803F00403002B08D0194B9B6855
:1025BC0023F4E0527B68DB68164913438B607B681D
:1025CC001B6803F00803002B09D0124B9B6823F403
:1025DC0060427B681B69DB000E4913438B6000F083
:1025EC0021F802460B4B9B681B0903F00F030A49A9
:1025FC00CB5C22FA03F3094A1360094B1B6818469B
:10260C00FEF750FC002318461037BD4680BD00BFB6
:10261C00003C0240003802409440000800000020BA
:10262C00040000202DE9B04F90B000AF00237B6375
:10263C000023FB6300233B630023BB63594B9B6864
:10264C0003F00C03082B0DD0082B00F2A180002BFB
:10265C0002D0042B03D09BE0534BBB639BE0534B4A
:10266C00BB6398E04F4B5B6803F03F037B634D4BC0
:10267C005B6803F48003002B28D04A4B5B689B09F2
:10268C0000223B627A623B6AC3F308000021474B8D
:10269C0003FB01F2002300FB03F31344434AA0FBAA
:1026AC000212FA620A46BA62FA6A1344FB627B6B44
:1026BC000022BB61FA61D7E90623D7E90A01FDF7CD
:1026CC008FFD02460B461346FB6353E0354B5B68AC
:1026DC009B0900223B617A613B69C3F3080A4FF006
:1026EC00000B52465B464FF000004FF000015901C1
:1026FC0041EAD261500102460B46B2EB0A0863EB89
:10270C000B094FF000024FF000034FEA891343EA24
:10271C0098634FEA8812B2EB080463EB09054FF09B
:10272C0000024FF00003EB0043EA5473E20014463E
:10273C001D4614EB0A033B6045EB0B037B604FF02B
:10274C0000024FF00003D7E9004529468B022146D1
:10275C0043EA915321468A02104619467B6B0022AC
:10276C00BB60FA60D7E90223FDF73AFD02460B463F
:10277C001346FB630B4B5B681B0C03F00303013329
:10278C005B003B63FA6B3B6BB2FBF3F3BB6302E0A6
:10279C00054BBB6300BFBB6B18464037BD46BDE85D
:1027AC00B08F00BF003802400024F40040787D0157
:1027BC0080B400AF034B1B681846BD465DF8047B24
:1027CC00704700BF0000002080B500AFFFF7F0FF9E
:1027DC000246054B9B689B0A03F007030349CB5C3D
:1027EC0022FA03F3184680BD00380240A4400008CA
:1027FC0080B500AFFFF7DCFF0246054B9B685B0B17
:10280C0003F007030349CB5C22FA03F3184680BD9F
:10281C0000380240A440000880B582B000AF786058
:10282C007B68002B01D1012341E07B6893F83D309C
:10283C00DBB2002B06D17B68002283F83C20786841
:10284C00FEF7A4F97B68022283F83D207B681A68A6
:10285C007B6804331946104600F058FA7B68012255
:10286C0083F846207B68012283F83E207B68012296
:10287C0083F83F207B68012283F840207B6801228B
:10288C0083F841207B68012283F842207B68012277
:10289C0083F843207B68012283F844207B68012263
:1028AC0083F845207B68012283F83D2000231846DD
:1028BC000837BD4680BD80B584B000AF78607B68BA
:1028CC001B68DB68FB607B681B681B69BB60BB68B3
:1028DC0003F00203002B20D0FB6803F00203002B53
:1028EC001BD07B681B686FF002021A617B680122A7
:1028FC001A777B681B689B6903F00303002B03D0DA
:10290C00786800F0E5F905E0786800F0D7F97868A8
:10291C0000F0E8F97B6800221A77BB6803F0040327
:10292C00002B20D0FB6803F00403002B1BD07B682A
:10293C001B686FF004021A617B6802221A777B68AD
:10294C001B689B6903F44073002B03D0786800F07C
:10295C00BFF905E0786800F0B1F9786800F0C2F9C9
:10296C007B6800221A77BB6803F00803002B20D089
:10297C00FB6803F00803002B1BD07B681B686FF00F
:10298C0008021A617B6804221A777B681B68DB6972
:10299C0003F00303002B03D0786800F099F905E0ED
:1029AC00786800F08BF9786800F09CF97B6800225D
:1029BC001A77BB6803F01003002B20D0FB6803F0E0
:1029CC001003002B1BD07B681B686FF010021A6180
:1029DC007B6808221A777B681B68DB6903F44073F9
:1029EC00002B03D0786800F073F905E0786800F0EC
:1029FC0065F9786800F076F97B6800221A77BB6875
:102A0C0003F00103002B0CD0FB6803F00103002B37
:102A1C0007D07B681B686FF001021A61786800F0C0
:102A2C0043F9BB6803F08003002B0CD0FB6803F068
:102A3C008003002B07D07B681B686FF080021A6143
:102A4C00786800F0C1FBBB6803F04003002B0CD08E
:102A5C00FB6803F04003002B07D07B681B686FF00A
:102A6C0040021A61786800F047F9BB6803F0200354
:102A7C00002B0CD0FB6803F02003002B07D07B68E5
:102A8C001B686FF020021A61786800F093FB00BF9E
:102A9C001037BD4680BD80B584B000AF786039601A
:102AAC000023FB737B6893F83C30012B01D102238C
:102ABC00B4E07B68012283F83C207B68022283F817
:102ACC003D207B681B689B68BB60BB6823F0770369
:102ADC00BB60BB6823F47F43BB607B681B68BA6830
:102AEC009A603B681B68B3F5005F3ED0B3F5005F9E
:102AFC0000F28780B3F5805F00F08680B3F5805FCD
:102B0C007FD8702B1AD0702B7BD8602B50D0602BB9
:102B1C0077D8502B3CD0502B73D8402B58D0402B0F
:102B2C006FD8302B64D0302B6BD8202B60D0202B5F
:102B3C0067D8002B5CD0102B5AD062E07B681868E9
:102B4C003B6899683B685A683B68DB6800F095FA0B
:102B5C007B681B689B68BB60BB6843F07703BB60FA
:102B6C007B681B68BA689A604FE07B6818683B68A2
:102B7C0099683B685A683B68DB6800F07EFA7B68B2
:102B8C001B689A687B681B6842F480429A603CE040
:102B9C007B6818683B6859683B68DB681A4600F02C
:102BAC00F2F97B681B685021184600F04BFA2CE0B8
:102BBC007B6818683B6859683B68DB681A4600F00C
:102BCC0011FA7B681B686021184600F03BFA1CE088
:102BDC007B6818683B6859683B68DB681A4600F0EC
:102BEC00D2F97B681B684021184600F02BFA0CE0E8
:102BFC007B681A683B681B681946104600F022FA7D
:102C0C0003E00123FB7300E000BF7B68012283F823
:102C1C003D207B68002283F83C20FB7B1846103754
:102C2C00BD4680BD80B582B000AF786039607B68EE
:102C3C0093F83C30012B01D1022331E07B68012257
:102C4C0083F83C207B68022283F83D203968786841
:102C5C0000F008F90346002B09D07B68012283F8A9
:102C6C003D207B68002283F83C20012318E07B6820
:102C7C001B68DA687B681B6822F04002DA607B68AC
:102C8C001B68DA687B681B6822F48042DA607B6818
:102C9C00012283F83D207B68002283F83C2000232E
:102CAC0018460837BD4680BD80B483B000AF78604D
:102CBC0000BF0C37BD465DF8047B704780B483B011
:102CCC0000AF786000BF0C37BD465DF8047B7047E1
:102CDC0080B483B000AF786000BF0C37BD465DF8A0
:102CEC00047B704780B483B000AF786000BF0C37B2
:102CFC00BD465DF8047B704780B483B000AF78604C
:102D0C0000BF0C37BD465DF8047B704780B485B0BE
:102D1C0000AF786039607B681B68FB607B68464A53
:102D2C00934213D07B68B3F1804F0FD07B68434A3A
:102D3C0093420BD07B68424A934207D07B68414A4E
:102D4C00934203D07B68404A934208D1FB6823F03E
:102D5C007003FB603B685B68FA681343FB607B683D
:102D6C00354A93422BD07B68B3F1804F27D07B68D8
:102D7C00324A934223D07B68314A93421FD07B68FE
:102D8C00304A93421BD07B682F4A934217D07B6802
:102D9C002E4A934213D07B682D4A93420FD07B6806
:102DAC002C4A93420BD07B682B4A934207D07B680A
:102DBC002A4A934203D07B68294A934208D1FB6884
:102DCC0023F44073FB603B68DB68FA681343FB60D9
:102DDC00FB6823F080023B685B691343FB607B68F4
:102DEC00FA681A603B689A687B68DA623B681A6812
:102DFC007B689A627B68104A934203D07B68124AC4
:102E0C00934203D13B681A697B681A637B68012281
:102E1C005A617B681B6903F00103012B05D17B68A8
:102E2C001B6923F001027B681A6100BF1437BD4691
:102E3C005DF8047B704700BF0000014000040040B7
:102E4C0000080040000C004000040140004001401C
:102E5C00004401400048014000180040001C0040A4
:102E6C000020004080B586B000AF78603960002348
:102E7C00FB757B681B689B683B613B6923F07003A7
:102E8C003B613B685B683A6913433B613B6923F0E8
:102E9C0007033B613B681B683A6913433B617B68E2
:102EAC001B683A699A603B685B68702B1AD0702B70
:102EBC0060D8602B54D0602B5CD8502B46D0502B54
:102ECC0058D8402B19D0402B54D8302B55D0302B00
:102EDC0050D8202B51D0202B4CD8002B4DD0102B60
:102EEC004BD047E07B6818683B68D9683B689A68A8
:102EFC003B681B6900F0C1F840E03B681B68052B80
:102F0C0001D101233BE07B681B681B6AFB607B687B
:102F1C001B681A6A7B681B6822F001021A627B68C4
:102F2C001B689B69BB60BB6823F0F003BB603B680C
:102F3C001B691B01BA681343BB607B681B68BA68CA
:102F4C009A617B681B68FA681A6217E07B681868DC
:102F5C003B6899683B681B691A4600F014F80DE051
:102F6C007B6818683B6899683B681B691A4600F0D7
:102F7C0039F803E00123FB7500E000BFFB7D184628
:102F8C001837BD4680BD80B487B000AFF860B9601B
:102F9C007A60FB681B6A7B61FB681B6A23F0010289
:102FAC00FB681A62FB689B693B613B6923F0F00389
:102FBC003B617B681B013A6913433B617B6923F0DE
:102FCC000A037B617A69BB6813437B61FB683A69CE
:102FDC009A61FB687A691A6200BF1C37BD465DF8BE
:102FEC00047B704780B487B000AFF860B9607A603A
:102FFC00FB681B6A7B61FB681B6A23F01002FB6891
:10300C001A62FB689B693B613B6923F470433B612B
:10301C007B681B033A6913433B617B6923F0A00374
:10302C007B61BB681B017A6913437B61FB683A695E
:10303C009A61FB687A691A6200BF1C37BD465DF85D
:10304C00047B704780B485B000AF786039607B68D2
:10305C009B68FB60FB6823F07003FB603A68FB68BD
:10306C00134343F00703FB607B68FA689A6000BF68
:10307C001437BD465DF8047B704780B487B000AF51
:10308C00F860B9607A603B60FB689B687B617B6928
:10309C0023F47F437B613B681A027B681A43BB684D
:1030AC0013437A6913437B61FB687A699A6000BFAA
:1030BC001C37BD465DF8047B7047000080B485B0BA
:1030CC0000AF786039607B6893F83C30012B01D1FC
:1030DC0002235AE07B68012283F83C207B680222A1
:1030EC0083F83D207B681B685B68FB607B681B6812
:1030FC009B68BB60FB6823F07003FB603B681B683C
:10310C00FA681343FB607B681B68FA685A607B683B
:10311C001B68214A934222D07B681B68B3F1804F15
:10312C001DD07B681B681D4A934218D07B681B68B6
:10313C001B4A934213D07B681B681A4A93420ED0E9
:10314C007B681B68184A934209D07B681B68174A36
:10315C00934204D07B681B68154A93420CD1BB6820
:10316C0023F08003BB603B685B68BA681343BB60A9
:10317C007B681B68BA689A607B68012283F83D20E3
:10318C007B68002283F83C20002318461437BD4688
:10319C005DF8047B704700BF000001400004004054
:1031AC0000080040000C00400004014000400140B9
:1031BC000018004080B483B000AF786000BF0C37BB
:1031CC00BD465DF8047B704780B483B000AF786077
:1031DC0000BF0C37BD465DF8047B704780B582B0EC
:1031EC0000AF78607B68002B01D1012342E07B6843
:1031FC0093F84130DBB2002B06D17B68002283F8B8
:10320C0040207868FDF7FAFC7B68242283F8412083
:10321C007B681B68DA687B681B6822F40052DA60F2
:10322C00786800F085FC7B681B681A697B681B68F2
:10323C0022F490421A617B681B685A697B681B6890
:10324C0022F02A025A617B681B68DA687B681B686B
:10325C0042F40052DA607B6800225A647B682022B8
:10326C0083F841207B68202283F842207B6800226F
:10327C005A63002318460837BD4680BD80B5BAB0E6
:10328C0000AF78607B681B681B68C7F8E4307B680C
:10329C001B68DB68C7F8E0307B681B685B69C7F8A4
:1032AC00DC300023C7F8D8300023C7F8D430D7F867
:1032BC00E43003F00F03C7F8D830D7F8D830002B20
:1032CC000FD1D7F8E43003F02003002B09D0D7F846
:1032DC00E03003F02003002B03D0786800F069FB8A
:1032EC005BE2D7F8D830002B00F0DE80D7F8DC306A
:1032FC0003F00103002B06D1D7F8E03003F49073F0
:10330C00002B00F0D180D7F8E43003F00103002B40
:10331C000BD0D7F8E03003F48073002B05D07B681A
:10332C005B6C43F001027B685A64D7F8E43003F01D
:10333C000403002B0BD0D7F8DC3003F00103002B77
:10334C0005D07B685B6C43F002027B685A64D7F84B
:10335C00E43003F00203002B0BD0D7F8DC3003F081
:10336C000103002B05D07B685B6C43F004027B6887
:10337C005A64D7F8E43003F00803002B11D0D7F8C7
:10338C00E03003F02003002B05D1D7F8DC3003F03C
:10339C000103002B05D07B685B6C43F008027B6853
:1033AC005A647B685B6C002B00F0F281D7F8E43038
:1033BC0003F02003002B08D0D7F8E03003F02003F3
:1033CC00002B02D0786800F0F4FA7B681B685B690C
:1033DC0003F04003402B0CBF01230023DBB2C7F8E2
:1033EC00D4307B685B6C03F00803002B03D1D7F857
:1033FC00D430002B4FD0786800F0FCF97B681B6848
:10340C005B6903F04003402B41D17B681B6814338C
:10341C00C7F89C30D7F89C3053E8003FC7F8983079
:10342C00D7F8983023F04003C7F8D0307B681B687E
:10343C001433D7F8D020C7F8A820C7F8A430D7F891
:10344C00A410D7F8A82041E80023C7F8A030D7F87B
:10345C00A030002BD9D17B68DB6B002B13D07B68A1
:10346C00DB6B7E4A1A657B68DB6B1846FDF70FFF3A
:10347C000346002B16D07B68DB6B1B6D7A68D26B16
:10348C00104698470EE0786800F09EF90AE07868DC
:10349C0000F09AF906E0786800F096F97B68002253
:1034AC005A6475E100BF73E17B681B6B012B40F024
:1034BC004F81D7F8E43003F01003002B00F0488163
:1034CC00D7F8E03003F01003002B00F0418100230B
:1034DC00BB607B681B681B68BB607B681B685B6898
:1034EC00BB60BB687B681B685B6903F04003402BC7
:1034FC0040F0B6807B68DB6B1B685B68A7F8BE305E
:10350C00B7F8BE30002B00F045817B689B8DB7F877
:10351C00BE209A4280F03E817B68B7F8BE20DA85E7
:10352C007B68DB6BDB69B3F5807F00F088807B68A0
:10353C001B680C33C7F88830D7F8883053E8003F45
:10354C00C7F88430D7F8843023F48073C7F8B830C8
:10355C007B681B680C33D7F8B820C7F89420C7F8E1
:10356C009030D7F89010D7F8942041E80023C7F892
:10357C008C30D7F88C30002BD9D17B681B68143376
:10358C007B677B6F53E8003F3B673B6F23F0010386
:10359C00C7F8B4307B681B681433D7F8B420C7F86D
:1035AC008020FB67F96FD7F8802041E80023BB67C8
:1035BC00BB6F002BE1D17B681B6814333B663B6E01
:1035CC0053E8003FFB65FB6D23F04003C7F8B030B8
:1035DC007B681B681433D7F8B020FA66BB66B96EEB
:1035EC00FA6E41E800237B667B6E002BE3D17B688F
:1035FC00202283F842207B6800221A637B681B68B8
:10360C000C33FB64FB6C53E8003FBB64BB6C23F0D6
:10361C001003C7F8AC307B681B680C33D7F8AC20B0
:10362C00BA657B65796DBA6D41E800233B653B6DEE
:10363C00002BE3D17B68DB6B1846FDF7B8FD7B688C
:10364C0002225A637B689A8D7B68DB8D9BB2D31AFE
:10365C009BB21946786800F0C1F89BE0C7380008A7
:10366C007B689A8D7B68DB8D9BB2D31AA7F8CE3022
:10367C007B68DB8D9BB2002B00F08E80B7F8CE30D0
:10368C00002B00F089807B681B680C33BB63BB6B21
:10369C0053E8003F7B637B6B23F49073C7F8C8300F
:1036AC007B681B680C33D7F8C8207A643B64396C90
:1036BC007A6C41E80023FB63FB6B002BE3D17B6846
:1036CC001B6814337B627B6A53E8003F3B623B6AA6
:1036DC0023F00103C7F8C4307B681B681433D7F898
:1036EC00C4203A63FB62F96A3A6B41E80023BB627F
:1036FC00BB6A002BE3D17B68202283F842207B68D5
:10370C0000221A637B681B680C333B613B6953E8EE
:10371C00003FFB60FB6823F01003C7F8C0307B68E8
:10372C001B680C33D7F8C020FA61BB61B969FA6920
:10373C0041E800237B617B69002BE3D17B6802228B
:10374C005A63B7F8CE301946786800F047F823E092
:10375C00D7F8E43003F08003002B09D0D7F8E03021
:10376C0003F08003002B03D0786800F0BAF814E063
:10377C00D7F8E43003F04003002B0ED0D7F8E0303C
:10378C0003F04003002B08D0786800F0FAF804E04E
:10379C0000BF02E000BF00E000BFE837BD4680BDBF
:1037AC0080B483B000AF786000BF0C37BD465DF8C5
:1037BC00047B704780B483B000AF786000BF0C37D7
:1037CC00BD465DF8047B704780B483B000AF786071
:1037DC0000BF0C37BD465DF8047B704780B483B0E6
:1037EC0000AF78600B467B8000BF0C37BD465DF8A0
:1037FC00047B704780B495B000AF78607B681B6821
:10380C000C337B637B6B53E8003F3B633B6B23F4D4
:10381C009073FB647B681B680C33FA6C3A64FB6333
:10382C00F96B3A6C41E80023BB63BB6B002BE5D111
:10383C007B681B6814333B623B6A53E8003FFB61B7
:10384C00FB6923F00103BB647B681B681433BA6CFF
:10385C00FA62BB62B96AFA6A41E800237B627B6A4E
:10386C00002BE5D17B681B6B012B19D17B681B6886
:10387C000C33FB60FB6853E8003FBB60BB6823F074
:10388C0010037B647B681B680C337A6CBA617B61B8
:10389C007969BA6941E800233B613B69002BE5D1AA
:1038AC007B68202283F842207B6800221A6300BFC9
:1038BC005437BD465DF8047B704780B584B000AFCB
:1038CC0078607B689B6BFB60FB680022DA85FB6889
:1038DC000022DA84F868FFF777FF00BF1037BD4687
:1038EC0080BD80B485B000AF78607B6893F84130C0
:1038FC00DBB2212B3ED17B689B68B3F5805F14D182
:10390C007B681B69002B10D17B681B6AFB60FB6812
:10391C001B881A467B681B68C2F308025A607B68D6
:10392C001B6A9A1C7B681A6208E07B681B6A591C2C
:10393C007A6811621A787B681B685A607B68DB8C2A
:10394C009BB2013B9BB27A681946D184002B0FD1F4
:10395C007B681B68DA687B681B6822F08002DA607F
:10396C007B681B68DA687B681B6842F04002DA608F
:10397C00002300E0022318461437BD465DF8047B93
:10398C00704780B582B000AF78607B681B68DA68DE
:10399C007B681B6822F04002DA607B68202283F887
:1039AC0041207868FFF7FCFE002318460837BD4617
:1039BC0080BD80B58CB000AF78607B6893F84230E6
:1039CC00DBB2222B40F0AE807B689B68B3F5805F46
:1039DC0017D17B681B69002B13D10023FB627B681A
:1039EC009B6ABB627B681B685B689BB2C3F3080372
:1039FC009AB2BB6A1A807B689B6A9A1C7B689A6233
:103A0C0026E07B689B6AFB620023BB627B689B6839
:103A1C00B3F5805F07D07B689B68002B0AD17B686D
:103A2C001B69002B06D17B681B685B68DAB2FB6AEA
:103A3C001A7008E07B681B685B68DBB203F07F03DD
:103A4C00DAB2FB6A1A707B689B6A5A1C7B689A62B2
:103A5C007B68DB8D9BB2013B9BB27A681946D185A2
:103A6C00002B5DD17B681B68DA687B681B6822F0D1
:103A7C002002DA607B681B68DA687B681B6822F4BA
:103A8C008072DA607B681B685A697B681B6822F05D
:103A9C0001025A617B68202283F842207B68002255
:103AAC005A637B681B6B012B35D17B6800221A6330
:103ABC007B681B680C337B617B6953E8003F3B617F
:103ACC003B6923F010037B627B681B680C337A6ABA
:103ADC003A62FB61F9693A6A41E80023BB61BB6950
:103AEC00002BE5D17B681B681B6803F01003102BBF
:103AFC000AD10023FB607B681B681B68FB607B683A
:103B0C001B685B68FB60FB687B689B8D194678685B
:103B1C00FFF764FE02E07868FFF74CFE002302E03A
:103B2C00002300E0022318463037BD4680BD00005C
:103B3C002DE9B04FC0B000AFC7F8F400D7F8F4309F
:103B4C001B681B6923F44050D7F8F430D968D7F8B8
:103B5C00F4301A6840EA01031361D7F8F4309A681C
:103B6C00D7F8F4301B691A43D7F8F4305B691A4361
:103B7C00D7F8F430DB691343C7F8F830D7F8F430D2
:103B8C001B68DB6823F4164121F00C01D7F8F430E4
:103B9C001A68D7F8F8300B43D360D7F8F4301B68A9
:103BAC005B6923F44070D7F8F4309969D7F8F43096
:103BBC001A6840EA01035361D7F8F4301A688F4B46
:103BCC009A4205D0D7F8F4301A688D4B9A4204D13A
:103BDC00FEF70EFEC7F8FC0003E0FEF7F5FDC7F894
:103BEC00FC00D7F8F430DB69B3F5004F40F00C81E2
:103BFC00D7F8FC300022C7F8E830C7F8EC20D7E93A
:103C0C003A4522462B469118B9655B41FB65D7E9CD
:103C1C001623214612EB0108294643EB01094FF00C
:103C2C0000024FF000034FEAC90343EA58734FEA0E
:103C3C00C80290469946234618EB0303C7F8E030B8
:103C4C002B4649EB0303C7F8E430D7F8F4305B6834
:103C5C000022C7F8D830C7F8DC20D7E936120B465B
:103C6C00DB183B65134642EB03037B65D7E9142352
:103C7C00D7E93801FCF7B4FA02460B46614BA3FBBB
:103C8C0002235B091C01D7F8FC300022C7F8D030A6
:103C9C00C7F8D420D7E9348942464B469118B96409
:103CAC005B41FB64D7E91223414612EB010A4946FA
:103CBC0043EB010B4FF000024FF000034FEACB0334
:103CCC0043EA5A734FEACA0292469B4643461AEBA2
:103CDC000303C7F8C8304B464BEB0303C7F8CC3093
:103CEC00D7F8F4305B680022C7F8C030C7F8C4209E
:103CFC00D7E930120B46DB183B64134642EB030347
:103D0C007B64D7E91023D7E93201FCF769FA024644
:103D1C000B4611463B4BA3FB01235B09642202FBC0
:103D2C0003F3CB1ADB0003F13202364BA3FB022365
:103D3C005B095B0003F4F8731C44D7F8FC300022D9
:103D4C00C7F8B830C7F8BC20D7E92E8942464B4695
:103D5C009118B9635B41FB63D7E90E2341465118B7
:103D6C00396349464B417B634FF000024FF000032F
:103D7C00D7E90CAB5946CB00514643EA5173514637
:103D8C00CA0010461946034642469B18C7F8B03085
:103D9C004B460A4642EB0303C7F8B430D7F8F4306D
:103DAC005B680022C7F8A830C7F8AC20D7E92A1204
:103DBC000B46DB18BB62134642EB0303FB62D7E9ED
:103DCC000A23D7E92C01FCF70BFA02460B460D4BE4
:103DDC00A3FB02135B09642101FB03F3D31ADB0081
:103DEC003233084AA2FB03235B0903F00702D7F81E
:103DFC00F4301B6822449A6006E100BF00100140B9
:103E0C00001401401F85EB51D7F8FC300022C7F895
:103E1C00A030C7F8A420D7E9288942464B46911810
:103E2C0039625B417B62D7E9082341465418494605
:103E3C0043EB01054FF000024FF00003EB0043EAA7
:103E4C005473E20014461D464346E318C7F89830F5
:103E5C004B4645EB0303C7F89C30D7F8F4305B684E
:103E6C000022C7F89030C7F894204FF000024FF0B2
:103E7C000003D7E9244529468B00214643EA917378
:103E8C0021468A00D7E92601FCF7AAF902460B461F
:103E9C00604BA3FB02235B091C01D7F8FC3000220A
:103EAC00C7F88830C7F88C20D7E9228942464B46A0
:103EBC009118B9615B41FB61D7E906234146511862
:103ECC00396149464B417B614FF000024FF00003D2
:103EDC00D7E904AB5946CB00514643EA51735146DE
:103EEC00CA0010461946034642469B18C7F8803054
:103EFC004B460A4642EB0303C7F88430D7F8F4303C
:103F0C005B680022BB67FA674FF000024FF00003BA
:103F1C00D7E91E8949468B00414643EA91734146D5
:103F2C008A00D7E92001FCF75BF902460B461146E3
:103F3C00384BA3FB01235B09642202FB03F3CB1A6E
:103F4C001B013233334AA2FB03235B0903F0F0035A
:103F5C001C44D7F8FC3000223B677A67D7E91C89F0
:103F6C0042464B469118B9605B41FB60D7E902238E
:103F7C0041465118396049464B417B604FF0000275
:103F8C004FF00003D7E900AB5946CB00514643EA4A
:103F9C0051735146CA0010461946034642469B18B7
:103FAC00BB664B460A4642EB0303FB66D7F8F4307C
:103FBC005B6800223B667A664FF000024FF000030C
:103FCC00D7E9188949468B00414643EA917341462B
:103FDC008A00D7E91A01FCF703F902460B460D4B90
:103FEC00A3FB02135B09642101FB03F3D31A1B012E
:103FFC003233084AA2FB03235B0903F00F02D7F804
:10400C00F4301B6822449A6000BF07F58077BD46E8
:10401C00BDE8B08F1F85EB5102440346934200D19B
:10402C00704703F8011BF9E770B50D4D0D4C641B7F
:10403C00A4100026A64209D10B4D0C4C00F018F828
:10404C00641BA4100026A64205D170BD55F8043B94
:10405C0098470136EEE755F8043B98470136F2E7EE
:10406C00B4400008B4400008B4400008B840000850
:10407C00F8B500BFF8BC08BC9E467047F8B500BF49
:08408C00F8BC08BC9E46704719
:1040940000000000000000000102030406070809F4
:0840A40000000000010203040A
:0840AC0070C1FF7F010000005C
:0440B400D10100082E
:0440B800AD0100084E
:0C40BC000024F4001000000001000000CF
:0400000508000E19C8
:00000001FF
